{
    "address": "0x581cBC507994764bccB70f2e0e79Da24D8D8012B",
    "abi": [
        {
            "inputs": [
                {
                    "internalType": "address",
                    "name": "_contractOwner",
                    "type": "address"
                }
            ],
            "stateMutability": "nonpayable",
            "type": "constructor"
        },
        {
            "inputs": [
                {
                    "internalType": "address",
                    "name": "target",
                    "type": "address"
                }
            ],
            "name": "AddressEmptyCode",
            "type": "error"
        },
        {
            "inputs": [
                {
                    "internalType": "address",
                    "name": "account",
                    "type": "address"
                }
            ],
            "name": "AddressInsufficientBalance",
            "type": "error"
        },
        {
            "inputs": [],
            "name": "FailedInnerCall",
            "type": "error"
        },
        {
            "inputs": [],
            "name": "ReentrancyGuardReentrantCall",
            "type": "error"
        },
        {
            "inputs": [
                {
                    "internalType": "address",
                    "name": "token",
                    "type": "address"
                }
            ],
            "name": "SafeERC20FailedOperation",
            "type": "error"
        },
        {
            "anonymous": false,
            "inputs": [
                {
                    "indexed": true,
                    "internalType": "string",
                    "name": "url",
                    "type": "string"
                },
                {
                    "indexed": true,
                    "internalType": "address",
                    "name": "owner",
                    "type": "address"
                }
            ],
            "name": "ContentDeactivated",
            "type": "event"
        },
        {
            "anonymous": false,
            "inputs": [
                {
                    "indexed": true,
                    "internalType": "string",
                    "name": "url",
                    "type": "string"
                },
                {
                    "indexed": true,
                    "internalType": "address",
                    "name": "owner",
                    "type": "address"
                }
            ],
            "name": "ContentReactivated",
            "type": "event"
        },
        {
            "anonymous": false,
            "inputs": [
                {
                    "indexed": true,
                    "internalType": "string",
                    "name": "url",
                    "type": "string"
                },
                {
                    "indexed": true,
                    "internalType": "address",
                    "name": "owner",
                    "type": "address"
                },
                {
                    "indexed": false,
                    "internalType": "uint256",
                    "name": "timestamp",
                    "type": "uint256"
                }
            ],
            "name": "ContentRegistered",
            "type": "event"
        },
        {
            "anonymous": false,
            "inputs": [
                {
                    "indexed": true,
                    "internalType": "address",
                    "name": "donor",
                    "type": "address"
                },
                {
                    "indexed": true,
                    "internalType": "address",
                    "name": "contentOwner",
                    "type": "address"
                },
                {
                    "indexed": true,
                    "internalType": "string",
                    "name": "contentUrl",
                    "type": "string"
                },
                {
                    "indexed": false,
                    "internalType": "uint256",
                    "name": "amount",
                    "type": "uint256"
                },
                {
                    "indexed": false,
                    "internalType": "uint256",
                    "name": "donationId",
                    "type": "uint256"
                },
                {
                    "indexed": false,
                    "internalType": "uint256",
                    "name": "timestamp",
                    "type": "uint256"
                },
                {
                    "indexed": false,
                    "internalType": "address",
                    "name": "token",
                    "type": "address"
                }
            ],
            "name": "DonationMade",
            "type": "event"
        },
        {
            "anonymous": false,
            "inputs": [
                {
                    "indexed": false,
                    "internalType": "uint256",
                    "name": "oldFee",
                    "type": "uint256"
                },
                {
                    "indexed": false,
                    "internalType": "uint256",
                    "name": "newFee",
                    "type": "uint256"
                }
            ],
            "name": "PlatformFeeUpdated",
            "type": "event"
        },
        {
            "anonymous": false,
            "inputs": [
                {
                    "indexed": true,
                    "internalType": "address",
                    "name": "token",
                    "type": "address"
                },
                {
                    "indexed": false,
                    "internalType": "string",
                    "name": "symbol",
                    "type": "string"
                }
            ],
            "name": "TokenAdded",
            "type": "event"
        },
        {
            "anonymous": false,
            "inputs": [
                {
                    "indexed": true,
                    "internalType": "address",
                    "name": "token",
                    "type": "address"
                }
            ],
            "name": "TokenRemoved",
            "type": "event"
        },
        {
            "anonymous": false,
            "inputs": [
                {
                    "indexed": true,
                    "internalType": "address",
                    "name": "creator",
                    "type": "address"
                },
                {
                    "indexed": false,
                    "internalType": "uint256",
                    "name": "amount",
                    "type": "uint256"
                },
                {
                    "indexed": false,
                    "internalType": "address",
                    "name": "token",
                    "type": "address"
                }
            ],
            "name": "WithdrawalMade",
            "type": "event"
        },
        {
            "stateMutability": "payable",
            "type": "fallback"
        },
        {
            "inputs": [
                {
                    "internalType": "address",
                    "name": "_token",
                    "type": "address"
                },
                {
                    "internalType": "string",
                    "name": "_symbol",
                    "type": "string"
                }
            ],
            "name": "addSupportedToken",
            "outputs": [],
            "stateMutability": "nonpayable",
            "type": "function"
        },
        {
            "inputs": [
                {
                    "internalType": "string",
                    "name": "",
                    "type": "string"
                },
                {
                    "internalType": "uint256",
                    "name": "",
                    "type": "uint256"
                }
            ],
            "name": "contentDonations",
            "outputs": [
                {
                    "internalType": "uint256",
                    "name": "",
                    "type": "uint256"
                }
            ],
            "stateMutability": "view",
            "type": "function"
        },
        {
            "inputs": [
                {
                    "internalType": "string",
                    "name": "_url",
                    "type": "string"
                }
            ],
            "name": "contentExistsCheck",
            "outputs": [
                {
                    "internalType": "bool",
                    "name": "",
                    "type": "bool"
                }
            ],
            "stateMutability": "view",
            "type": "function"
        },
        {
            "inputs": [
                {
                    "internalType": "string",
                    "name": "",
                    "type": "string"
                }
            ],
            "name": "contents",
            "outputs": [
                {
                    "internalType": "string",
                    "name": "url",
                    "type": "string"
                },
                {
                    "internalType": "address",
                    "name": "owner",
                    "type": "address"
                },
                {
                    "internalType": "uint256",
                    "name": "totalDonationsReceived",
                    "type": "uint256"
                },
                {
                    "internalType": "uint256",
                    "name": "donationCount",
                    "type": "uint256"
                },
                {
                    "internalType": "bool",
                    "name": "isActive",
                    "type": "bool"
                },
                {
                    "internalType": "uint256",
                    "name": "createdAt",
                    "type": "uint256"
                }
            ],
            "stateMutability": "view",
            "type": "function"
        },
        {
            "inputs": [],
            "name": "contractOwner",
            "outputs": [
                {
                    "internalType": "address",
                    "name": "",
                    "type": "address"
                }
            ],
            "stateMutability": "view",
            "type": "function"
        },
        {
            "inputs": [
                {
                    "internalType": "address",
                    "name": "",
                    "type": "address"
                },
                {
                    "internalType": "uint256",
                    "name": "",
                    "type": "uint256"
                }
            ],
            "name": "creatorContents",
            "outputs": [
                {
                    "internalType": "string",
                    "name": "",
                    "type": "string"
                }
            ],
            "stateMutability": "view",
            "type": "function"
        },
        {
            "inputs": [
                {
                    "internalType": "address",
                    "name": "",
                    "type": "address"
                },
                {
                    "internalType": "address",
                    "name": "",
                    "type": "address"
                }
            ],
            "name": "creatorEarnings",
            "outputs": [
                {
                    "internalType": "uint256",
                    "name": "",
                    "type": "uint256"
                }
            ],
            "stateMutability": "view",
            "type": "function"
        },
        {
            "inputs": [
                {
                    "internalType": "string",
                    "name": "_url",
                    "type": "string"
                }
            ],
            "name": "deactivateContent",
            "outputs": [],
            "stateMutability": "nonpayable",
            "type": "function"
        },
        {
            "inputs": [
                {
                    "internalType": "string",
                    "name": "_url",
                    "type": "string"
                }
            ],
            "name": "donateToContent",
            "outputs": [],
            "stateMutability": "payable",
            "type": "function"
        },
        {
            "inputs": [
                {
                    "internalType": "string",
                    "name": "_url",
                    "type": "string"
                },
                {
                    "internalType": "address",
                    "name": "_token",
                    "type": "address"
                },
                {
                    "internalType": "uint256",
                    "name": "_amount",
                    "type": "uint256"
                }
            ],
            "name": "donateTokenToContent",
            "outputs": [],
            "stateMutability": "nonpayable",
            "type": "function"
        },
        {
            "inputs": [
                {
                    "internalType": "uint256",
                    "name": "",
                    "type": "uint256"
                }
            ],
            "name": "donations",
            "outputs": [
                {
                    "internalType": "address",
                    "name": "donor",
                    "type": "address"
                },
                {
                    "internalType": "address",
                    "name": "contentOwner",
                    "type": "address"
                },
                {
                    "internalType": "uint256",
                    "name": "amount",
                    "type": "uint256"
                },
                {
                    "internalType": "uint256",
                    "name": "timestamp",
                    "type": "uint256"
                },
                {
                    "internalType": "string",
                    "name": "contentUrl",
                    "type": "string"
                },
                {
                    "internalType": "address",
                    "name": "token",
                    "type": "address"
                }
            ],
            "stateMutability": "view",
            "type": "function"
        },
        {
            "inputs": [
                {
                    "internalType": "address",
                    "name": "",
                    "type": "address"
                },
                {
                    "internalType": "address",
                    "name": "",
                    "type": "address"
                }
            ],
            "name": "donorTotalDonations",
            "outputs": [
                {
                    "internalType": "uint256",
                    "name": "",
                    "type": "uint256"
                }
            ],
            "stateMutability": "view",
            "type": "function"
        },
        {
            "inputs": [
                {
                    "internalType": "string",
                    "name": "_url",
                    "type": "string"
                }
            ],
            "name": "getContent",
            "outputs": [
                {
                    "internalType": "string",
                    "name": "url",
                    "type": "string"
                },
                {
                    "internalType": "address",
                    "name": "owner",
                    "type": "address"
                },
                {
                    "internalType": "uint256",
                    "name": "totalDonationsReceived",
                    "type": "uint256"
                },
                {
                    "internalType": "uint256",
                    "name": "donationCount",
                    "type": "uint256"
                },
                {
                    "internalType": "bool",
                    "name": "isActive",
                    "type": "bool"
                },
                {
                    "internalType": "uint256",
                    "name": "createdAt",
                    "type": "uint256"
                }
            ],
            "stateMutability": "view",
            "type": "function"
        },
        {
            "inputs": [
                {
                    "internalType": "string",
                    "name": "_url",
                    "type": "string"
                }
            ],
            "name": "getContentDonations",
            "outputs": [
                {
                    "internalType": "uint256[]",
                    "name": "",
                    "type": "uint256[]"
                }
            ],
            "stateMutability": "view",
            "type": "function"
        },
        {
            "inputs": [
                {
                    "internalType": "address",
                    "name": "_creator",
                    "type": "address"
                }
            ],
            "name": "getCreatorAllEarnings",
            "outputs": [
                {
                    "internalType": "address[]",
                    "name": "tokens",
                    "type": "address[]"
                },
                {
                    "internalType": "uint256[]",
                    "name": "amounts",
                    "type": "uint256[]"
                },
                {
                    "internalType": "string[]",
                    "name": "symbols",
                    "type": "string[]"
                }
            ],
            "stateMutability": "view",
            "type": "function"
        },
        {
            "inputs": [
                {
                    "internalType": "address",
                    "name": "_creator",
                    "type": "address"
                }
            ],
            "name": "getCreatorContents",
            "outputs": [
                {
                    "internalType": "string[]",
                    "name": "",
                    "type": "string[]"
                }
            ],
            "stateMutability": "view",
            "type": "function"
        },
        {
            "inputs": [
                {
                    "internalType": "address",
                    "name": "_creator",
                    "type": "address"
                },
                {
                    "internalType": "address",
                    "name": "_token",
                    "type": "address"
                }
            ],
            "name": "getCreatorEarnings",
            "outputs": [
                {
                    "internalType": "uint256",
                    "name": "",
                    "type": "uint256"
                }
            ],
            "stateMutability": "view",
            "type": "function"
        },
        {
            "inputs": [
                {
                    "internalType": "uint256",
                    "name": "_donationId",
                    "type": "uint256"
                }
            ],
            "name": "getDonation",
            "outputs": [
                {
                    "internalType": "address",
                    "name": "donor",
                    "type": "address"
                },
                {
                    "internalType": "address",
                    "name": "contentOwner",
                    "type": "address"
                },
                {
                    "internalType": "uint256",
                    "name": "amount",
                    "type": "uint256"
                },
                {
                    "internalType": "uint256",
                    "name": "timestamp",
                    "type": "uint256"
                },
                {
                    "internalType": "string",
                    "name": "contentUrl",
                    "type": "string"
                },
                {
                    "internalType": "address",
                    "name": "token",
                    "type": "address"
                }
            ],
            "stateMutability": "view",
            "type": "function"
        },
        {
            "inputs": [
                {
                    "internalType": "address",
                    "name": "_donor",
                    "type": "address"
                }
            ],
            "name": "getDonorAllDonations",
            "outputs": [
                {
                    "internalType": "address[]",
                    "name": "tokens",
                    "type": "address[]"
                },
                {
                    "internalType": "uint256[]",
                    "name": "amounts",
                    "type": "uint256[]"
                },
                {
                    "internalType": "string[]",
                    "name": "symbols",
                    "type": "string[]"
                }
            ],
            "stateMutability": "view",
            "type": "function"
        },
        {
            "inputs": [
                {
                    "internalType": "address",
                    "name": "_donor",
                    "type": "address"
                },
                {
                    "internalType": "address",
                    "name": "_token",
                    "type": "address"
                }
            ],
            "name": "getDonorTotalDonations",
            "outputs": [
                {
                    "internalType": "uint256",
                    "name": "",
                    "type": "uint256"
                }
            ],
            "stateMutability": "view",
            "type": "function"
        },
        {
            "inputs": [],
            "name": "getPlatformStats",
            "outputs": [
                {
                    "internalType": "uint256",
                    "name": "totalContentsCount",
                    "type": "uint256"
                },
                {
                    "internalType": "uint256",
                    "name": "totalDonationsCount",
                    "type": "uint256"
                },
                {
                    "internalType": "uint256",
                    "name": "currentPlatformFee",
                    "type": "uint256"
                }
            ],
            "stateMutability": "view",
            "type": "function"
        },
        {
            "inputs": [
                {
                    "internalType": "string",
                    "name": "_url",
                    "type": "string"
                },
                {
                    "internalType": "uint256",
                    "name": "_limit",
                    "type": "uint256"
                }
            ],
            "name": "getRecentDonations",
            "outputs": [
                {
                    "internalType": "uint256[]",
                    "name": "",
                    "type": "uint256[]"
                }
            ],
            "stateMutability": "view",
            "type": "function"
        },
        {
            "inputs": [],
            "name": "getSupportedTokens",
            "outputs": [
                {
                    "internalType": "address[]",
                    "name": "tokens",
                    "type": "address[]"
                },
                {
                    "internalType": "string[]",
                    "name": "symbols",
                    "type": "string[]"
                }
            ],
            "stateMutability": "view",
            "type": "function"
        },
        {
            "inputs": [],
            "name": "platformFee",
            "outputs": [
                {
                    "internalType": "uint256",
                    "name": "",
                    "type": "uint256"
                }
            ],
            "stateMutability": "view",
            "type": "function"
        },
        {
            "inputs": [
                {
                    "internalType": "string",
                    "name": "_url",
                    "type": "string"
                }
            ],
            "name": "reactivateContent",
            "outputs": [],
            "stateMutability": "nonpayable",
            "type": "function"
        },
        {
            "inputs": [
                {
                    "internalType": "string",
                    "name": "_url",
                    "type": "string"
                }
            ],
            "name": "registerContent",
            "outputs": [],
            "stateMutability": "nonpayable",
            "type": "function"
        },
        {
            "inputs": [
                {
                    "internalType": "address",
                    "name": "_token",
                    "type": "address"
                }
            ],
            "name": "removeSupportedToken",
            "outputs": [],
            "stateMutability": "nonpayable",
            "type": "function"
        },
        {
            "inputs": [
                {
                    "internalType": "uint256",
                    "name": "",
                    "type": "uint256"
                }
            ],
            "name": "supportedTokenList",
            "outputs": [
                {
                    "internalType": "address",
                    "name": "",
                    "type": "address"
                }
            ],
            "stateMutability": "view",
            "type": "function"
        },
        {
            "inputs": [
                {
                    "internalType": "address",
                    "name": "",
                    "type": "address"
                }
            ],
            "name": "supportedTokens",
            "outputs": [
                {
                    "internalType": "bool",
                    "name": "",
                    "type": "bool"
                }
            ],
            "stateMutability": "view",
            "type": "function"
        },
        {
            "inputs": [
                {
                    "internalType": "address",
                    "name": "",
                    "type": "address"
                }
            ],
            "name": "tokenSymbols",
            "outputs": [
                {
                    "internalType": "string",
                    "name": "",
                    "type": "string"
                }
            ],
            "stateMutability": "view",
            "type": "function"
        },
        {
            "inputs": [],
            "name": "totalContents",
            "outputs": [
                {
                    "internalType": "uint256",
                    "name": "",
                    "type": "uint256"
                }
            ],
            "stateMutability": "view",
            "type": "function"
        },
        {
            "inputs": [],
            "name": "totalDonations",
            "outputs": [
                {
                    "internalType": "uint256",
                    "name": "",
                    "type": "uint256"
                }
            ],
            "stateMutability": "view",
            "type": "function"
        },
        {
            "inputs": [
                {
                    "internalType": "string",
                    "name": "_url",
                    "type": "string"
                },
                {
                    "internalType": "address",
                    "name": "_newOwner",
                    "type": "address"
                }
            ],
            "name": "transferContentOwnership",
            "outputs": [],
            "stateMutability": "nonpayable",
            "type": "function"
        },
        {
            "inputs": [
                {
                    "internalType": "uint256",
                    "name": "_newFee",
                    "type": "uint256"
                }
            ],
            "name": "updatePlatformFee",
            "outputs": [],
            "stateMutability": "nonpayable",
            "type": "function"
        },
        {
            "inputs": [],
            "name": "withdrawAllEarnings",
            "outputs": [],
            "stateMutability": "nonpayable",
            "type": "function"
        },
        {
            "inputs": [],
            "name": "withdrawAllPlatformFees",
            "outputs": [],
            "stateMutability": "nonpayable",
            "type": "function"
        },
        {
            "inputs": [],
            "name": "withdrawEthEarnings",
            "outputs": [],
            "stateMutability": "nonpayable",
            "type": "function"
        },
        {
            "inputs": [],
            "name": "withdrawPlatformFeesEth",
            "outputs": [],
            "stateMutability": "nonpayable",
            "type": "function"
        },
        {
            "inputs": [
                {
                    "internalType": "address",
                    "name": "_token",
                    "type": "address"
                }
            ],
            "name": "withdrawPlatformFeesToken",
            "outputs": [],
            "stateMutability": "nonpayable",
            "type": "function"
        },
        {
            "inputs": [
                {
                    "internalType": "address",
                    "name": "_token",
                    "type": "address"
                }
            ],
            "name": "withdrawTokenEarnings",
            "outputs": [],
            "stateMutability": "nonpayable",
            "type": "function"
        },
        {
            "stateMutability": "payable",
            "type": "receive"
        }
    ],
    "transactionHash": "0xebe71e3d76558c47f1b1d7d85f77a19c7031a3311bde74f263350f022da424c4",
    "args": [
        "0xE594d66726C49625A381fe7b0FddF66725B5eF26"
    ],
    "numDeployments": 1,
    "solcInputHash": "f660945d9ae1b1dfcc72b1d223b8bded",
    "bytecode": "0x60a06040526000600155600060025560fa6003553480156200002057600080fd5b50604051620043a0380380620043a083398101604081905262000043916200005a565b60016000556001600160a01b03166080526200008c565b6000602082840312156200006d57600080fd5b81516001600160a01b03811681146200008557600080fd5b9392505050565b6080516142b2620000ee6000396000818161070101528181610c2701528181610cc701528181610f67015281816110b001528181611e65015281816120700152818161280201528181612ae001528181612b300152612c9d01526142b26000f3fe6080604052600436106102275760003560e01c80637e87addf11610122578063b8bc7b0e116100a5578063d866dc9d1161006c578063d866dc9d14610766578063de2ed8931461079e578063ef07a81f146107b4578063f8626af8146107e6578063fb0b2b361461080657005b8063b8bc7b0e146106ba578063bb55ba08146106cf578063ce606ee0146106ef578063d3c7c2c714610723578063d6f2bdcb1461074657005b80639b3d24ee116100e95780639b3d24ee146105dc578063a6acce3514610622578063aa0b598814610642578063ac4d9cb214610662578063b0825df31461068257005b80637e87addf1461050f5780638c9e1f3c1461052f578063935de851146105615780639881b46b1461057657806399cd0468146105bc57005b80633848627b116101aa5780635d95b93d116101715780635d95b93d1461046a57806368c4ac261461047f57806368ea48e6146104af578063720138e8146104cf57806376319190146104ef57005b80633848627b146103c7578063401a9685146103dd578063403747331461040a57806342c17e8f146104375780635573bd931461044a57005b80631c784c2a116101ee5780631c784c2a1461030b57806323ccdef91461033957806326232a2e146103595780632b60c8221461036f57806331256666146103a757005b806305cbf0b2146102305780630f9ad7271461026857806310c6f57c14610298578063136d8883146102c557806318dc0812146102f657005b3661022e57005b005b34801561023c57600080fd5b5061025061024b3660046138d1565b610826565b60405161025f93929190613a08565b60405180910390f35b34801561027457600080fd5b50610288610283366004613ae3565b610b75565b604051901515815260200161025f565b3480156102a457600080fd5b506102b86102b3366004613ae3565b610bac565b60405161025f9190613b1f565b3480156102d157600080fd5b506001546002546003546040805193845260208401929092529082015260600161025f565b34801561030257600080fd5b5061022e610c1c565b34801561031757600080fd5b5061032b610326366004613b32565b610d90565b60405190815260200161025f565b34801561034557600080fd5b506102b8610354366004613b32565b610dd0565b34801561036557600080fd5b5061032b60035481565b34801561037b57600080fd5b5061038f61038a366004613b76565b610f32565b6040516001600160a01b03909116815260200161025f565b3480156103b357600080fd5b5061022e6103c23660046138d1565b610f5c565b3480156103d357600080fd5b5061032b60015481565b3480156103e957600080fd5b506103fd6103f8366004613b8f565b6110e3565b60405161025f9190613bb9565b34801561041657600080fd5b5061042a6104253660046138d1565b61119c565b60405161025f9190613bcc565b61022e610445366004613ae3565b61128b565b34801561045657600080fd5b5061022e610465366004613bdf565b6115f1565b34801561047657600080fd5b5061022e6118ed565b34801561048b57600080fd5b5061028861049a3660046138d1565b60046020526000908152604090205460ff1681565b3480156104bb57600080fd5b506102506104ca3660046138d1565b611b13565b3480156104db57600080fd5b5061022e6104ea366004613c2c565b611e5a565b3480156104fb57600080fd5b5061022e61050a3660046138d1565b612065565b34801561051b57600080fd5b5061022e61052a3660046138d1565b612258565b34801561053b57600080fd5b5061054f61054a366004613ae3565b612376565b60405161025f96959493929190613c79565b34801561056d57600080fd5b5061022e6124ba565b34801561058257600080fd5b5061032b610591366004613cc0565b6001600160a01b039182166000908152600a6020908152604080832093909416825291909152205490565b3480156105c857600080fd5b5061022e6105d7366004613ae3565b612609565b3480156105e857600080fd5b5061032b6105f7366004613cc0565b6001600160a01b03918216600090815260096020908152604080832093909416825291909152205490565b34801561062e57600080fd5b5061054f61063d366004613ae3565b612721565b34801561064e57600080fd5b5061022e61065d366004613b76565b6127f7565b34801561066e57600080fd5b5061022e61067d366004613ae3565b6128ce565b34801561068e57600080fd5b5061032b61069d366004613cc0565b600a60209081526000928352604080842090915290825290205481565b3480156106c657600080fd5b5061022e612ad5565b3480156106db57600080fd5b5061022e6106ea366004613ae3565b612cd7565b3480156106fb57600080fd5b5061038f7f000000000000000000000000000000000000000000000000000000000000000081565b34801561072f57600080fd5b50610738612def565b60405161025f929190613cea565b34801561075257600080fd5b5061022e610761366004613d18565b612fa7565b34801561077257600080fd5b5061032b610781366004613cc0565b600960209081526000928352604080842090915290825290205481565b3480156107aa57600080fd5b5061032b60025481565b3480156107c057600080fd5b506107d46107cf366004613b76565b6133db565b60405161025f96959493929190613d6e565b3480156107f257600080fd5b506107d4610801366004613b76565b613512565b34801561081257600080fd5b506103fd6108213660046138d1565b6135e7565b6006546060908190819061083b906001613dd0565b6001600160401b0381111561085257610852613a41565b60405190808252806020026020018201604052801561087b578160200160208202803683370190505b5060065490935061088d906001613dd0565b6001600160401b038111156108a4576108a4613a41565b6040519080825280602002602001820160405280156108cd578160200160208202803683370190505b506006549092506108df906001613dd0565b6001600160401b038111156108f6576108f6613a41565b60405190808252806020026020018201604052801561092957816020015b60608152602001906001900390816109145790505b50905060008360008151811061094157610941613de3565b6001600160a01b0392831660209182029290920181019190915290851660009081526009825260408082208280529092529081205483519091849161098857610988613de3565b6020026020010181815250506040518060400160405280600381526020016208aa8960eb1b815250816000815181106109c3576109c3613de3565b602002602001018190525060005b600654811015610b6d576000600682815481106109f0576109f0613de3565b6000918252602090912001546001600160a01b031690508085610a14846001613dd0565b81518110610a2457610a24613de3565b6001600160a01b039283166020918202929092018101919091528782166000908152600982526040808220938516825292909152205484610a66846001613dd0565b81518110610a7657610a76613de3565b60200260200101818152505060056000826001600160a01b03166001600160a01b031681526020019081526020016000208054610ab290613df9565b80601f0160208091040260200160405190810160405280929190818152602001828054610ade90613df9565b8015610b2b5780601f10610b0057610100808354040283529160200191610b2b565b820191906000526020600020905b815481529060010190602001808311610b0e57829003601f168201915b505050505083836001610b3e9190613dd0565b81518110610b4e57610b4e613de3565b6020026020010181905250508080610b6590613e33565b9150506109d1565b509193909250565b600080600783604051610b889190613e4c565b9081526040519081900360200190208054610ba290613df9565b9050119050919050565b6060600c82604051610bbe9190613e4c565b9081526040805191829003602090810183208054808302850183019093528284529190830182828015610c1057602002820191906000526020600020905b815481526020019060010190808311610bfc575b50505050509050919050565b336001600160a01b037f00000000000000000000000000000000000000000000000000000000000000001614610c6d5760405162461bcd60e51b8152600401610c6490613e68565b60405180910390fd5b610c75613600565b4780610cc35760405162461bcd60e51b815260206004820152601760248201527f4e6f20455448206665657320746f2077697468647261770000000000000000006044820152606401610c64565b60007f00000000000000000000000000000000000000000000000000000000000000006001600160a01b03168260405160006040518083038185875af1925050503d8060008114610d30576040519150601f19603f3d011682016040523d82523d6000602084013e610d35565b606091505b5050905080610d825760405162461bcd60e51b815260206004820152601960248201527811551208199959481dda5d1a191c985dd85b0819985a5b1959603a1b6044820152606401610c64565b5050610d8e6001600055565b565b8151602081840181018051600c825292820191850191909120919052805482908110610dbb57600080fd5b90600052602060002001600091509150505481565b60606000600c84604051610de49190613e4c565b9081526040805191829003602090810183208054808302850183019093528284529190830182828015610e3657602002820191906000526020600020905b815481526020019060010190808311610e22575b5050505050905060008151905080600003610e635750506040805160008152602081019091529050610f2c565b6000818511610e725784610e74565b815b90506000816001600160401b03811115610e9057610e90613a41565b604051908082528060200260200182016040528015610eb9578160200160208202803683370190505b50905060005b82811015610f25578481610ed4600187613e98565b610ede9190613e98565b81518110610eee57610eee613de3565b6020026020010151828281518110610f0857610f08613de3565b602090810291909101015280610f1d81613e33565b915050610ebf565b5093505050505b92915050565b60068181548110610f4257600080fd5b6000918252602090912001546001600160a01b0316905081565b336001600160a01b037f00000000000000000000000000000000000000000000000000000000000000001614610fa45760405162461bcd60e51b8152600401610c6490613e68565b610fac613600565b6001600160a01b03811660009081526004602052604090205460ff16610fe45760405162461bcd60e51b8152600401610c6490613eab565b6040516370a0823160e01b81523060048201526000906001600160a01b038316906370a0823190602401602060405180830381865afa15801561102b573d6000803e3d6000fd5b505050506040513d601f19601f8201168201806040525081019061104f9190613ed8565b9050600081116110a15760405162461bcd60e51b815260206004820152601960248201527f4e6f20746f6b656e206665657320746f207769746864726177000000000000006044820152606401610c64565b6110d56001600160a01b0383167f00000000000000000000000000000000000000000000000000000000000000008361362a565b506110e06001600055565b50565b600860205281600052604060002081815481106110ff57600080fd5b9060005260206000200160009150915050805461111b90613df9565b80601f016020809104026020016040519081016040528092919081815260200182805461114790613df9565b80156111945780601f1061116957610100808354040283529160200191611194565b820191906000526020600020905b81548152906001019060200180831161117757829003601f168201915b505050505081565b6001600160a01b0381166000908152600860209081526040808320805482518185028101850190935280835260609492939192909184015b828210156112805783829060005260206000200180546111f390613df9565b80601f016020809104026020016040519081016040528092919081815260200182805461121f90613df9565b801561126c5780601f106112415761010080835404028352916020019161126c565b820191906000526020600020905b81548152906001019060200180831161124f57829003601f168201915b5050505050815260200190600101906111d4565b505050509050919050565b80600060078260405161129e9190613e4c565b90815260405190819003602001902080546112b890613df9565b9050116112d75760405162461bcd60e51b8152600401610c6490613ef1565b816007816040516112e89190613e4c565b9081526040519081900360200190206004015460ff166113425760405162461bcd60e51b8152602060048201526015602482015274436f6e74656e74206973206e6f742061637469766560581b6044820152606401610c64565b600034116113625760405162461bcd60e51b8152600401610c6490613f21565b60006007846040516113749190613e4c565b908152602001604051809103902090506000612710600354346113979190613f67565b6113a19190613f7e565b905060006113af8234613e98565b9050808360020160008282546113c59190613dd0565b90915550506003830180549060006113dc83613e33565b909155505060018301546001600160a01b0316600090815260096020908152604080832083805290915281208054839290611418908490613dd0565b9091555050336000908152600a6020908152604080832083805290915281208054349290611447908490613dd0565b90915550506040805160c0810182523381526001858101546001600160a01b039081166020808501918252348587019081524260608701908152608087018e8152600060a08901819052600280548252600b90955298909820875181546001600160a01b031990811691881691909117825594519681018054909516969095169590951790925590519082015590516003820155915190919060048201906114ef9082613fee565b5060a09190910151600590910180546001600160a01b0319166001600160a01b03909216919091179055604051600c9061152a908890613e4c565b908152604051602091819003820190206002805482546001810184556000938452938320909301929092558154919061156283613e33565b9190505550856040516115759190613e4c565b6040519081900390206001808501546002546001600160a01b039091169133917fb5d59b7dcecbfa44be93adbd36abc3d5d92b159a3dff85ecc32080511a906f7d9134916115c39190613e98565b60408051928352602083019190915242908201526000606082015260800160405180910390a4505050505050565b8160006007826040516116049190613e4c565b908152604051908190036020019020805461161e90613df9565b90501161163d5760405162461bcd60e51b8152600401610c6490613ef1565b82336001600160a01b03166007826040516116589190613e4c565b908152604051908190036020019020600101546001600160a01b0316146116915760405162461bcd60e51b8152600401610c64906140ad565b6001600160a01b0383166116e75760405162461bcd60e51b815260206004820152601960248201527f496e76616c6964206e6577206f776e65722061646472657373000000000000006044820152606401610c64565b6007846040516116f79190613e4c565b908152604051908190036020019020600101546001600160a01b03908116908416036117525760405162461bcd60e51b815260206004820152600a60248201526929b0b6b29037bbb732b960b11b6044820152606401610c64565b60006007856040516117649190613e4c565b908152604051908190036020018120600101546001600160a01b031691508490600790611792908890613e4c565b908152604080516020928190038301902060010180546001600160a01b0319166001600160a01b0394851617905591831660009081526008909152908120905b81548110156118b15786805190602001208282815481106117f5576117f5613de3565b9060005260206000200160405161180c91906140dc565b60405180910390200361189f578154829061182990600190613e98565b8154811061183957611839613de3565b9060005260206000200182828154811061185557611855613de3565b90600052602060002001908161186b9190614152565b508180548061187c5761187c614224565b6001900381819060005260206000200160006118989190613867565b90556118b1565b806118a981613e33565b9150506117d2565b506001600160a01b0385166000908152600860209081526040822080546001810182559083529120016118e48782613fee565b50505050505050565b6118f5613600565b33600090815260096020908152604080832083805290915281205480156119ef573360008181526009602090815260408083208380529091528082208290555190919083908381818185875af1925050503d8060008114611972576040519150601f19603f3d011682016040523d82523d6000602084013e611977565b606091505b50509050806119c05760405162461bcd60e51b8152602060048201526015602482015274115512081dda5d1a191c985dd85b0819985a5b1959605a1b6044820152606401610c64565b6040805183815260006020820152339160008051602061425d833981519152910160405180910390a260019250505b60005b600654811015611ac557600060068281548110611a1157611a11613de3565b60009182526020808320909101543383526009825260408084206001600160a01b03909216808552919092529120549091508015611ab0573360008181526009602090815260408083206001600160a01b0387168085529252822091909155611a7a918361362a565b604080518281526001600160a01b0384166020820152339160008051602061425d833981519152910160405180910390a2600194505b50508080611abd90613e33565b9150506119f2565b5081610d825760405162461bcd60e51b815260206004820152601760248201527f4e6f206561726e696e677320746f2077697468647261770000000000000000006044820152606401610c64565b60065460609081908190611b28906001613dd0565b6001600160401b03811115611b3f57611b3f613a41565b604051908082528060200260200182016040528015611b68578160200160208202803683370190505b50600654909350611b7a906001613dd0565b6001600160401b03811115611b9157611b91613a41565b604051908082528060200260200182016040528015611bba578160200160208202803683370190505b50600654909250611bcc906001613dd0565b6001600160401b03811115611be357611be3613a41565b604051908082528060200260200182016040528015611c1657816020015b6060815260200190600190039081611c015790505b509050600083600081518110611c2e57611c2e613de3565b6001600160a01b039283166020918202929092018101919091529085166000908152600a8252604080822082805290925290812054835190918491611c7557611c75613de3565b6020026020010181815250506040518060400160405280600381526020016208aa8960eb1b81525081600081518110611cb057611cb0613de3565b602002602001018190525060005b600654811015610b6d57600060068281548110611cdd57611cdd613de3565b6000918252602090912001546001600160a01b031690508085611d01846001613dd0565b81518110611d1157611d11613de3565b6001600160a01b039283166020918202929092018101919091528782166000908152600a82526040808220938516825292909152205484611d53846001613dd0565b81518110611d6357611d63613de3565b60200260200101818152505060056000826001600160a01b03166001600160a01b031681526020019081526020016000208054611d9f90613df9565b80601f0160208091040260200160405190810160405280929190818152602001828054611dcb90613df9565b8015611e185780601f10611ded57610100808354040283529160200191611e18565b820191906000526020600020905b815481529060010190602001808311611dfb57829003601f168201915b505050505083836001611e2b9190613dd0565b81518110611e3b57611e3b613de3565b6020026020010181905250508080611e5290613e33565b915050611cbe565b336001600160a01b037f00000000000000000000000000000000000000000000000000000000000000001614611ea25760405162461bcd60e51b8152600401610c6490613e68565b6001600160a01b038216611ef05760405162461bcd60e51b8152602060048201526015602482015274496e76616c696420746f6b656e206164647265737360581b6044820152606401610c64565b6001600160a01b03821660009081526004602052604090205460ff1615611f595760405162461bcd60e51b815260206004820152601760248201527f546f6b656e20616c726561647920737570706f727465640000000000000000006044820152606401610c64565b6000815111611fa35760405162461bcd60e51b815260206004820152601660248201527553796d626f6c2063616e6e6f7420626520656d70747960501b6044820152606401610c64565b6001600160a01b0382166000908152600460209081526040808320805460ff1916600117905560059091529020611fda8282613fee565b50600680546001810182556000919091527ff652222313e28459528d920b65115c16c04f3efc82aaedc97be59f3f377c0d3f0180546001600160a01b0319166001600160a01b0384169081179091556040517f7afee0f1b802cc0f66c67890e26b4566251859cf2cd8de79b86aed7251d9756a90612059908490613bb9565b60405180910390a25050565b336001600160a01b037f000000000000000000000000000000000000000000000000000000000000000016146120ad5760405162461bcd60e51b8152600401610c6490613e68565b6001600160a01b03811660009081526004602052604090205460ff166120e55760405162461bcd60e51b8152600401610c6490613eab565b6001600160a01b0381166000908152600460209081526040808320805460ff191690556005909152812061211891613867565b60005b60065481101561222057816001600160a01b03166006828154811061214257612142613de3565b6000918252602090912001546001600160a01b03160361220e576006805461216c90600190613e98565b8154811061217c5761217c613de3565b600091825260209091200154600680546001600160a01b0390921691839081106121a8576121a8613de3565b9060005260206000200160006101000a8154816001600160a01b0302191690836001600160a01b0316021790555060068054806121e7576121e7614224565b600082815260209020810160001990810180546001600160a01b0319169055019055612220565b8061221881613e33565b91505061211b565b506040516001600160a01b038216907f4c910b69fe65a61f7531b9c5042b2329ca7179c77290aa7e2eb3afa3c8511fd390600090a250565b612260613600565b6001600160a01b03811660009081526004602052604090205460ff166122985760405162461bcd60e51b8152600401610c6490613eab565b3360009081526009602090815260408083206001600160a01b0385168452909152902054806123095760405162461bcd60e51b815260206004820152601d60248201527f4e6f20746f6b656e206561726e696e677320746f2077697468647261770000006044820152606401610c64565b3360008181526009602090815260408083206001600160a01b038716808552925282209190915561233a918361362a565b604080518281526001600160a01b0384166020820152339160008051602061425d833981519152910160405180910390a2506110e06001600055565b60606000806000806000806007886040516123919190613e4c565b90815260200160405180910390206040518060c00160405290816000820180546123ba90613df9565b80601f01602080910402602001604051908101604052809291908181526020018280546123e690613df9565b80156124335780601f1061240857610100808354040283529160200191612433565b820191906000526020600020905b81548152906001019060200180831161241657829003601f168201915b505050918352505060018201546001600160a01b031660208083019190915260028301546040808401919091526003840154606080850191909152600485015460ff16151560808086019190915260059095015460a0948501528551928601519186015190860151948601519590930151919d909c50919a50919850919650945092505050565b6124c2613600565b3360009081526009602090815260408083208380529091529020548061252a5760405162461bcd60e51b815260206004820152601b60248201527f4e6f20455448206561726e696e677320746f20776974686472617700000000006044820152606401610c64565b3360008181526009602090815260408083208380529091528082208290555190919083908381818185875af1925050503d8060008114612586576040519150601f19603f3d011682016040523d82523d6000602084013e61258b565b606091505b50509050806125d45760405162461bcd60e51b8152602060048201526015602482015274115512081dda5d1a191c985dd85b0819985a5b1959605a1b6044820152606401610c64565b6040805183815260006020820152339160008051602061425d833981519152910160405180910390a25050610d8e6001600055565b80600060078260405161261c9190613e4c565b908152604051908190036020019020805461263690613df9565b9050116126555760405162461bcd60e51b8152600401610c6490613ef1565b81336001600160a01b03166007826040516126709190613e4c565b908152604051908190036020019020600101546001600160a01b0316146126a95760405162461bcd60e51b8152600401610c64906140ad565b60006007846040516126bb9190613e4c565b908152604051908190036020018120600401805492151560ff199093169290921790915533906126ec908590613e4c565b604051908190038120907f6f94c96ce1576b8ba3d9866aa680bb233f89e672d999a75a8f6a26f098549f1090600090a3505050565b805160208183018101805160078252928201919093012091528054819061274790613df9565b80601f016020809104026020016040519081016040528092919081815260200182805461277390613df9565b80156127c05780601f10612795576101008083540402835291602001916127c0565b820191906000526020600020905b8154815290600101906020018083116127a357829003601f168201915b50505050600183015460028401546003850154600486015460059096015494956001600160a01b03909316949193509160ff169086565b336001600160a01b037f0000000000000000000000000000000000000000000000000000000000000000161461283f5760405162461bcd60e51b8152600401610c6490613e68565b6103e88111156128895760405162461bcd60e51b81526020600482015260156024820152744665652063616e6e6f74206578636565642031302560581b6044820152606401610c64565b600380549082905560408051828152602081018490527fd347e206f25a89b917fc9482f1a2d294d749baa4dc9bde7fb495ee11fe491643910160405180910390a15050565b60008151116129155760405162461bcd60e51b815260206004820152601360248201527255524c2063616e6e6f7420626520656d70747960681b6044820152606401610c64565b6007816040516129259190613e4c565b908152604051908190036020019020805461293f90613df9565b15905061298e5760405162461bcd60e51b815260206004820152601a60248201527f436f6e74656e7420616c726561647920726567697374657265640000000000006044820152606401610c64565b6040805160c08101825282815233602082015260008183018190526060820152600160808201524260a082015290516007906129cb908490613e4c565b908152604051908190036020019020815181906129e89082613fee565b50602082810151600183810180546001600160a01b0319166001600160a01b0390931692909217909155604080850151600285015560608501516003850155608085015160048501805460ff191691151591909117905560a0909401516005909301929092553360009081526008825292832080549283018155835290912001612a728282613fee565b5060018054906000612a8383613e33565b90915550506040513390612a98908390613e4c565b604051908190038120428252907f228c65a7f785ca93694858b57fcb2e7db07a5ee9e0a7e642452f4684cd91b25c9060200160405180910390a350565b336001600160a01b037f00000000000000000000000000000000000000000000000000000000000000001614612b1d5760405162461bcd60e51b8152600401610c6490613e68565b612b25613600565b478015612bed5760007f00000000000000000000000000000000000000000000000000000000000000006001600160a01b03168260405160006040518083038185875af1925050503d8060008114612b99576040519150601f19603f3d011682016040523d82523d6000602084013e612b9e565b606091505b5050905080612beb5760405162461bcd60e51b815260206004820152601960248201527811551208199959481dda5d1a191c985dd85b0819985a5b1959603a1b6044820152606401610c64565b505b60005b600654811015610d8257600060068281548110612c0f57612c0f613de3565b60009182526020822001546040516370a0823160e01b81523060048201526001600160a01b03909116925082906370a0823190602401602060405180830381865afa158015612c62573d6000803e3d6000fd5b505050506040513d601f19601f82011682018060405250810190612c869190613ed8565b90508015612cc257612cc26001600160a01b0383167f00000000000000000000000000000000000000000000000000000000000000008361362a565b50508080612ccf90613e33565b915050612bf0565b806000600782604051612cea9190613e4c565b9081526040519081900360200190208054612d0490613df9565b905011612d235760405162461bcd60e51b8152600401610c6490613ef1565b81336001600160a01b0316600782604051612d3e9190613e4c565b908152604051908190036020019020600101546001600160a01b031614612d775760405162461bcd60e51b8152600401610c64906140ad565b6001600784604051612d899190613e4c565b908152604051908190036020018120600401805492151560ff19909316929092179091553390612dba908590613e4c565b604051908190038120907f658d8181c686f564d44cc5e8c2dc71775c9a180e1f19112c92877677b4106ef190600090a3505050565b6060806006805480602002602001604051908101604052809291908181526020018280548015612e4857602002820191906000526020600020905b81546001600160a01b03168152600190910190602001808311612e2a575b505060065493955050506001600160401b038211159050612e6b57612e6b613a41565b604051908082528060200260200182016040528015612e9e57816020015b6060815260200190600190039081612e895790505b50905060005b600654811015612fa2576005600060068381548110612ec557612ec5613de3565b60009182526020808320909101546001600160a01b0316835282019290925260400190208054612ef490613df9565b80601f0160208091040260200160405190810160405280929190818152602001828054612f2090613df9565b8015612f6d5780601f10612f4257610100808354040283529160200191612f6d565b820191906000526020600020905b815481529060010190602001808311612f5057829003601f168201915b5050505050828281518110612f8457612f84613de3565b60200260200101819052508080612f9a90613e33565b915050612ea4565b509091565b826000600782604051612fba9190613e4c565b9081526040519081900360200190208054612fd490613df9565b905011612ff35760405162461bcd60e51b8152600401610c6490613ef1565b836007816040516130049190613e4c565b9081526040519081900360200190206004015460ff1661305e5760405162461bcd60e51b8152602060048201526015602482015274436f6e74656e74206973206e6f742061637469766560581b6044820152606401610c64565b613066613600565b600083116130865760405162461bcd60e51b8152600401610c6490613f21565b6001600160a01b03841660009081526004602052604090205460ff166130be5760405162461bcd60e51b8152600401610c6490613eab565b60006007866040516130d09190613e4c565b90815260405190819003602001902090506130f66001600160a01b03861633308761368e565b6000612710600354866131099190613f67565b6131139190613f7e565b905060006131218287613e98565b9050808360020160008282546131379190613dd0565b909155505060038301805490600061314e83613e33565b909155505060018301546001600160a01b039081166000908152600960209081526040808320938b168352929052908120805483929061318f908490613dd0565b9091555050336000908152600a602090815260408083206001600160a01b038b168452909152812080548892906131c7908490613dd0565b925050819055506040518060c00160405280336001600160a01b031681526020018460010160009054906101000a90046001600160a01b03166001600160a01b03168152602001878152602001428152602001898152602001886001600160a01b0316815250600b6000600254815260200190815260200160002060008201518160000160006101000a8154816001600160a01b0302191690836001600160a01b0316021790555060208201518160010160006101000a8154816001600160a01b0302191690836001600160a01b03160217905550604082015181600201556060820151816003015560808201518160040190816132c59190613fee565b5060a09190910151600590910180546001600160a01b0319166001600160a01b03909216919091179055604051600c90613300908a90613e4c565b908152604051602091819003820190206002805482546001810184556000938452938320909301929092558154919061333883613e33565b91905055508760405161334b9190613e4c565b6040519081900390206001808501546002546001600160a01b039091169133917fb5d59b7dcecbfa44be93adbd36abc3d5d92b159a3dff85ecc32080511a906f7d918b916133999190613e98565b60408051928352602083019190915242908201526001600160a01b038c16606082015260800160405180910390a45050506133d46001600055565b5050505050565b6000818152600b60209081526040808320815160c08101835281546001600160a01b03908116825260018301541693810193909352600281015491830191909152600381015460608381019190915260048201805485948594859493859384939291608084019161344b90613df9565b80601f016020809104026020016040519081016040528092919081815260200182805461347790613df9565b80156134c45780601f10613499576101008083540402835291602001916134c4565b820191906000526020600020905b8154815290600101906020018083116134a757829003601f168201915b5050509183525050600591909101546001600160a01b031660209182015281519082015160408301516060840151608085015160a090950151939d929c50909a509850919650945092505050565b600b60205260009081526040902080546001820154600283015460038401546004850180546001600160a01b039586169694909516949293919261355590613df9565b80601f016020809104026020016040519081016040528092919081815260200182805461358190613df9565b80156135ce5780601f106135a3576101008083540402835291602001916135ce565b820191906000526020600020905b8154815290600101906020018083116135b157829003601f168201915b505050600590930154919250506001600160a01b031686565b6005602052600090815260409020805461111b90613df9565b60026000540361362357604051633ee5aeb560e01b815260040160405180910390fd5b6002600055565b6040516001600160a01b0383811660248301526044820183905261368991859182169063a9059cbb906064015b604051602081830303815290604052915060e01b6020820180516001600160e01b0383818316178352505050506136cd565b505050565b6040516001600160a01b0384811660248301528381166044830152606482018390526136c79186918216906323b872dd90608401613657565b50505050565b60006136e26001600160a01b03841683613730565b90508051600014158015613707575080806020019051810190613705919061423a565b155b1561368957604051635274afe760e01b81526001600160a01b0384166004820152602401610c64565b606061373e83836000613745565b9392505050565b60608147101561376a5760405163cd78605960e01b8152306004820152602401610c64565b600080856001600160a01b031684866040516137869190613e4c565b60006040518083038185875af1925050503d80600081146137c3576040519150601f19603f3d011682016040523d82523d6000602084013e6137c8565b606091505b50915091506137d88683836137e2565b9695505050505050565b6060826137f7576137f28261383e565b61373e565b815115801561380e57506001600160a01b0384163b155b1561383757604051639996b31560e01b81526001600160a01b0385166004820152602401610c64565b508061373e565b80511561384e5780518082602001fd5b604051630a12f52160e11b815260040160405180910390fd5b50805461387390613df9565b6000825580601f10613883575050565b601f0160209004906000526020600020908101906110e091905b808211156138b1576000815560010161389d565b5090565b80356001600160a01b03811681146138cc57600080fd5b919050565b6000602082840312156138e357600080fd5b61373e826138b5565b600081518084526020808501945080840160005b838110156139255781516001600160a01b031687529582019590820190600101613900565b509495945050505050565b600081518084526020808501945080840160005b8381101561392557815187529582019590820190600101613944565b60005b8381101561397b578181015183820152602001613963565b50506000910152565b6000815180845261399c816020860160208601613960565b601f01601f19169290920160200192915050565b600082825180855260208086019550808260051b84010181860160005b848110156139fb57601f198684030189526139e9838351613984565b988401989250908301906001016139cd565b5090979650505050505050565b606081526000613a1b60608301866138ec565b8281036020840152613a2d8186613930565b905082810360408401526137d881856139b0565b634e487b7160e01b600052604160045260246000fd5b600082601f830112613a6857600080fd5b81356001600160401b0380821115613a8257613a82613a41565b604051601f8301601f19908116603f01168101908282118183101715613aaa57613aaa613a41565b81604052838152866020858801011115613ac357600080fd5b836020870160208301376000602085830101528094505050505092915050565b600060208284031215613af557600080fd5b81356001600160401b03811115613b0b57600080fd5b613b1784828501613a57565b949350505050565b60208152600061373e6020830184613930565b60008060408385031215613b4557600080fd5b82356001600160401b03811115613b5b57600080fd5b613b6785828601613a57565b95602094909401359450505050565b600060208284031215613b8857600080fd5b5035919050565b60008060408385031215613ba257600080fd5b613bab836138b5565b946020939093013593505050565b60208152600061373e6020830184613984565b60208152600061373e60208301846139b0565b60008060408385031215613bf257600080fd5b82356001600160401b03811115613c0857600080fd5b613c1485828601613a57565b925050613c23602084016138b5565b90509250929050565b60008060408385031215613c3f57600080fd5b613c48836138b5565b915060208301356001600160401b03811115613c6357600080fd5b613c6f85828601613a57565b9150509250929050565b60c081526000613c8c60c0830189613984565b6001600160a01b0397909716602083015250604081019490945260608401929092521515608083015260a090910152919050565b60008060408385031215613cd357600080fd5b613cdc836138b5565b9150613c23602084016138b5565b604081526000613cfd60408301856138ec565b8281036020840152613d0f81856139b0565b95945050505050565b600080600060608486031215613d2d57600080fd5b83356001600160401b03811115613d4357600080fd5b613d4f86828701613a57565b935050613d5e602085016138b5565b9150604084013590509250925092565b600060018060a01b038089168352808816602084015286604084015285606084015260c06080840152613da460c0840186613984565b915080841660a084015250979650505050505050565b634e487b7160e01b600052601160045260246000fd5b80820180821115610f2c57610f2c613dba565b634e487b7160e01b600052603260045260246000fd5b600181811c90821680613e0d57607f821691505b602082108103613e2d57634e487b7160e01b600052602260045260246000fd5b50919050565b600060018201613e4557613e45613dba565b5060010190565b60008251613e5e818460208701613960565b9190910192915050565b6020808252601690820152752737ba103a34329031b7b73a3930b1ba1037bbb732b960511b604082015260600190565b81810381811115610f2c57610f2c613dba565b602080825260139082015272151bdad95b881b9bdd081cdd5c1c1bdc9d1959606a1b604082015260600190565b600060208284031215613eea57600080fd5b5051919050565b60208082526016908201527510dbdb9d195b9d08191bd95cc81b9bdd08195e1a5cdd60521b604082015260600190565b60208082526026908201527f446f6e6174696f6e20616d6f756e74206d75737420626520677265617465722060408201526507468616e20360d41b606082015260800190565b8082028115828204841417610f2c57610f2c613dba565b600082613f9b57634e487b7160e01b600052601260045260246000fd5b500490565b601f82111561368957600081815260208120601f850160051c81016020861015613fc75750805b601f850160051c820191505b81811015613fe657828155600101613fd3565b505050505050565b81516001600160401b0381111561400757614007613a41565b61401b816140158454613df9565b84613fa0565b602080601f83116001811461405057600084156140385750858301515b600019600386901b1c1916600185901b178555613fe6565b600085815260208120601f198616915b8281101561407f57888601518255948401946001909101908401614060565b508582101561409d5787850151600019600388901b60f8161c191681555b5050505050600190811b01905550565b6020808252601590820152742737ba103a34329031b7b73a32b73a1037bbb732b960591b604082015260600190565b60008083546140ea81613df9565b60018281168015614102576001811461411757614146565b60ff1984168752821515830287019450614146565b8760005260208060002060005b8581101561413d5781548a820152908401908201614124565b50505082870194505b50929695505050505050565b81810361415d575050565b6141678254613df9565b6001600160401b0381111561417e5761417e613a41565b61418c816140158454613df9565b6000601f8211600181146141c057600083156141a85750848201545b600019600385901b1c1916600184901b1784556133d4565b600085815260209020601f19841690600086815260209020845b838110156141fa57828601548255600195860195909101906020016141da565b508583101561409d5793015460001960f8600387901b161c19169092555050600190811b01905550565b634e487b7160e01b600052603160045260246000fd5b60006020828403121561424c57600080fd5b8151801515811461373e57600080fdfe565848cdb1369b8f0e5b0f6eb298a192163a96cf9f692903ec5f14cd2c0b7b65a2646970667358221220bb1dba0e357ebdb3ec91892791bac083337014f711088c4acaa1815501f5a33464736f6c63430008140033",
    "devdoc": {
        "author": "Pisa",
        "errors": {
            "AddressEmptyCode(address)": [
                {
                    "details": "There's no code at `target` (it is not a contract)."
                }
            ],
            "AddressInsufficientBalance(address)": [
                {
                    "details": "The ETH balance of the account is not enough to perform the operation."
                }
            ],
            "FailedInnerCall()": [
                {
                    "details": "A call to an address target failed. The target may have reverted."
                }
            ],
            "ReentrancyGuardReentrantCall()": [
                {
                    "details": "Unauthorized reentrant call."
                }
            ],
            "SafeERC20FailedOperation(address)": [
                {
                    "details": "An operation with an ERC20 token failed."
                }
            ]
        },
        "kind": "dev",
        "methods": {
            "addSupportedToken(address,string)": {
                "params": {
                    "_symbol": "The token symbol for display purposes",
                    "_token": "The token address to add"
                }
            },
            "contentExistsCheck(string)": {
                "params": {
                    "_url": "The content URL to check"
                },
                "returns": {
                    "_0": "bool True if content exists, false otherwise"
                }
            },
            "deactivateContent(string)": {
                "params": {
                    "_url": "The content URL to deactivate"
                }
            },
            "donateToContent(string)": {
                "params": {
                    "_url": "The content URL to donate to"
                }
            },
            "donateTokenToContent(string,address,uint256)": {
                "params": {
                    "_amount": "The amount of tokens to donate",
                    "_token": "The token address to donate",
                    "_url": "The content URL to donate to"
                }
            },
            "getContent(string)": {
                "params": {
                    "_url": "The content URL"
                }
            },
            "getContentDonations(string)": {
                "params": {
                    "_url": "The content URL"
                }
            },
            "getCreatorAllEarnings(address)": {
                "params": {
                    "_creator": "The creator's address"
                }
            },
            "getCreatorContents(address)": {
                "params": {
                    "_creator": "The creator's address"
                }
            },
            "getCreatorEarnings(address,address)": {
                "params": {
                    "_creator": "The creator's address",
                    "_token": "The token address (address(0) for ETH)"
                }
            },
            "getDonation(uint256)": {
                "params": {
                    "_donationId": "The donation ID"
                }
            },
            "getDonorAllDonations(address)": {
                "params": {
                    "_donor": "The donor's address"
                }
            },
            "getDonorTotalDonations(address,address)": {
                "params": {
                    "_donor": "The donor's address",
                    "_token": "The token address (address(0) for ETH)"
                }
            },
            "getRecentDonations(string,uint256)": {
                "params": {
                    "_url": "The content URL"
                }
            },
            "reactivateContent(string)": {
                "params": {
                    "_url": "The content URL to reactivate"
                }
            },
            "registerContent(string)": {
                "params": {
                    "_url": "The streaming content URL"
                }
            },
            "removeSupportedToken(address)": {
                "params": {
                    "_token": "The token address to remove"
                }
            },
            "transferContentOwnership(string,address)": {
                "params": {
                    "_newOwner": "The new owner address",
                    "_url": "The content URL"
                }
            },
            "updatePlatformFee(uint256)": {
                "params": {
                    "_newFee": "New fee in basis points (e.g., 250 = 2.5%)"
                }
            },
            "withdrawPlatformFeesToken(address)": {
                "params": {
                    "_token": "The token address to withdraw fees for"
                }
            },
            "withdrawTokenEarnings(address)": {
                "params": {
                    "_token": "The token address to withdraw"
                }
            }
        },
        "version": 1
    },
    "userdoc": {
        "kind": "user",
        "methods": {
            "addSupportedToken(address,string)": {
                "notice": "Add a supported token (only contract owner)"
            },
            "contentExistsCheck(string)": {
                "notice": "Check if content exists"
            },
            "deactivateContent(string)": {
                "notice": "Deactivate content (only by content owner)"
            },
            "donateToContent(string)": {
                "notice": "Donate to a specific content"
            },
            "donateTokenToContent(string,address,uint256)": {
                "notice": "Donate tokens to a specific content"
            },
            "getContent(string)": {
                "notice": "Get content information"
            },
            "getContentDonations(string)": {
                "notice": "Get donation IDs for a specific content"
            },
            "getCreatorAllEarnings(address)": {
                "notice": "Get creator earnings for all tokens"
            },
            "getCreatorContents(address)": {
                "notice": "Get all content URLs by a creator"
            },
            "getCreatorEarnings(address,address)": {
                "notice": "Get creator earnings for a specific token"
            },
            "getDonation(uint256)": {
                "notice": "Get donation details by ID"
            },
            "getDonorAllDonations(address)": {
                "notice": "Get donor total donations for all tokens"
            },
            "getDonorTotalDonations(address,address)": {
                "notice": "Get donor total donations for a specific token"
            },
            "getPlatformStats()": {
                "notice": "Get platform statistics"
            },
            "getRecentDonations(string,uint256)": {
                "notice": "Get top donors for a specific content (last 10 donations)"
            },
            "getSupportedTokens()": {
                "notice": "Get all supported tokens"
            },
            "reactivateContent(string)": {
                "notice": "Reactivate content (only by content owner)"
            },
            "registerContent(string)": {
                "notice": "Register a new streaming content URL"
            },
            "removeSupportedToken(address)": {
                "notice": "Remove a supported token (only contract owner)"
            },
            "transferContentOwnership(string,address)": {
                "notice": "Emergency function to transfer content ownership"
            },
            "updatePlatformFee(uint256)": {
                "notice": "Update platform fee (only contract owner)"
            },
            "withdrawAllEarnings()": {
                "notice": "Withdraw all earnings for a creator (ETH + all supported tokens)"
            },
            "withdrawAllPlatformFees()": {
                "notice": "Withdraw all platform fees (ETH + all tokens) (only contract owner)"
            },
            "withdrawEthEarnings()": {
                "notice": "Allow creators to withdraw their ETH earnings"
            },
            "withdrawPlatformFeesEth()": {
                "notice": "Withdraw platform fees in ETH (only contract owner)"
            },
            "withdrawPlatformFeesToken(address)": {
                "notice": "Withdraw platform fees in tokens (only contract owner)"
            },
            "withdrawTokenEarnings(address)": {
                "notice": "Allow creators to withdraw their token earnings"
            }
        },
        "notice": "A smart contract for streaming content donations Allows content creators to register their streaming URLs and receive donations",
        "version": 1
    },
    "storageLayout": {
        "storage": [
            {
                "astId": 667,
                "contract": "contracts/PisangContract.sol:PisangContract",
                "label": "_status",
                "offset": 0,
                "slot": "0",
                "type": "t_uint256"
            },
            {
                "astId": 743,
                "contract": "contracts/PisangContract.sol:PisangContract",
                "label": "totalContents",
                "offset": 0,
                "slot": "1",
                "type": "t_uint256"
            },
            {
                "astId": 746,
                "contract": "contracts/PisangContract.sol:PisangContract",
                "label": "totalDonations",
                "offset": 0,
                "slot": "2",
                "type": "t_uint256"
            },
            {
                "astId": 749,
                "contract": "contracts/PisangContract.sol:PisangContract",
                "label": "platformFee",
                "offset": 0,
                "slot": "3",
                "type": "t_uint256"
            },
            {
                "astId": 753,
                "contract": "contracts/PisangContract.sol:PisangContract",
                "label": "supportedTokens",
                "offset": 0,
                "slot": "4",
                "type": "t_mapping(t_address,t_bool)"
            },
            {
                "astId": 757,
                "contract": "contracts/PisangContract.sol:PisangContract",
                "label": "tokenSymbols",
                "offset": 0,
                "slot": "5",
                "type": "t_mapping(t_address,t_string_storage)"
            },
            {
                "astId": 760,
                "contract": "contracts/PisangContract.sol:PisangContract",
                "label": "supportedTokenList",
                "offset": 0,
                "slot": "6",
                "type": "t_array(t_address)dyn_storage"
            },
            {
                "astId": 791,
                "contract": "contracts/PisangContract.sol:PisangContract",
                "label": "contents",
                "offset": 0,
                "slot": "7",
                "type": "t_mapping(t_string_memory_ptr,t_struct(Content)773_storage)"
            },
            {
                "astId": 796,
                "contract": "contracts/PisangContract.sol:PisangContract",
                "label": "creatorContents",
                "offset": 0,
                "slot": "8",
                "type": "t_mapping(t_address,t_array(t_string_storage)dyn_storage)"
            },
            {
                "astId": 802,
                "contract": "contracts/PisangContract.sol:PisangContract",
                "label": "creatorEarnings",
                "offset": 0,
                "slot": "9",
                "type": "t_mapping(t_address,t_mapping(t_address,t_uint256))"
            },
            {
                "astId": 808,
                "contract": "contracts/PisangContract.sol:PisangContract",
                "label": "donorTotalDonations",
                "offset": 0,
                "slot": "10",
                "type": "t_mapping(t_address,t_mapping(t_address,t_uint256))"
            },
            {
                "astId": 813,
                "contract": "contracts/PisangContract.sol:PisangContract",
                "label": "donations",
                "offset": 0,
                "slot": "11",
                "type": "t_mapping(t_uint256,t_struct(Donation)786_storage)"
            },
            {
                "astId": 818,
                "contract": "contracts/PisangContract.sol:PisangContract",
                "label": "contentDonations",
                "offset": 0,
                "slot": "12",
                "type": "t_mapping(t_string_memory_ptr,t_array(t_uint256)dyn_storage)"
            }
        ],
        "types": {
            "t_address": {
                "encoding": "inplace",
                "label": "address",
                "numberOfBytes": "20"
            },
            "t_array(t_address)dyn_storage": {
                "base": "t_address",
                "encoding": "dynamic_array",
                "label": "address[]",
                "numberOfBytes": "32"
            },
            "t_array(t_string_storage)dyn_storage": {
                "base": "t_string_storage",
                "encoding": "dynamic_array",
                "label": "string[]",
                "numberOfBytes": "32"
            },
            "t_array(t_uint256)dyn_storage": {
                "base": "t_uint256",
                "encoding": "dynamic_array",
                "label": "uint256[]",
                "numberOfBytes": "32"
            },
            "t_bool": {
                "encoding": "inplace",
                "label": "bool",
                "numberOfBytes": "1"
            },
            "t_mapping(t_address,t_array(t_string_storage)dyn_storage)": {
                "encoding": "mapping",
                "key": "t_address",
                "label": "mapping(address => string[])",
                "numberOfBytes": "32",
                "value": "t_array(t_string_storage)dyn_storage"
            },
            "t_mapping(t_address,t_bool)": {
                "encoding": "mapping",
                "key": "t_address",
                "label": "mapping(address => bool)",
                "numberOfBytes": "32",
                "value": "t_bool"
            },
            "t_mapping(t_address,t_mapping(t_address,t_uint256))": {
                "encoding": "mapping",
                "key": "t_address",
                "label": "mapping(address => mapping(address => uint256))",
                "numberOfBytes": "32",
                "value": "t_mapping(t_address,t_uint256)"
            },
            "t_mapping(t_address,t_string_storage)": {
                "encoding": "mapping",
                "key": "t_address",
                "label": "mapping(address => string)",
                "numberOfBytes": "32",
                "value": "t_string_storage"
            },
            "t_mapping(t_address,t_uint256)": {
                "encoding": "mapping",
                "key": "t_address",
                "label": "mapping(address => uint256)",
                "numberOfBytes": "32",
                "value": "t_uint256"
            },
            "t_mapping(t_string_memory_ptr,t_array(t_uint256)dyn_storage)": {
                "encoding": "mapping",
                "key": "t_string_memory_ptr",
                "label": "mapping(string => uint256[])",
                "numberOfBytes": "32",
                "value": "t_array(t_uint256)dyn_storage"
            },
            "t_mapping(t_string_memory_ptr,t_struct(Content)773_storage)": {
                "encoding": "mapping",
                "key": "t_string_memory_ptr",
                "label": "mapping(string => struct PisangContract.Content)",
                "numberOfBytes": "32",
                "value": "t_struct(Content)773_storage"
            },
            "t_mapping(t_uint256,t_struct(Donation)786_storage)": {
                "encoding": "mapping",
                "key": "t_uint256",
                "label": "mapping(uint256 => struct PisangContract.Donation)",
                "numberOfBytes": "32",
                "value": "t_struct(Donation)786_storage"
            },
            "t_string_memory_ptr": {
                "encoding": "bytes",
                "label": "string",
                "numberOfBytes": "32"
            },
            "t_string_storage": {
                "encoding": "bytes",
                "label": "string",
                "numberOfBytes": "32"
            },
            "t_struct(Content)773_storage": {
                "encoding": "inplace",
                "label": "struct PisangContract.Content",
                "members": [
                    {
                        "astId": 762,
                        "contract": "contracts/PisangContract.sol:PisangContract",
                        "label": "url",
                        "offset": 0,
                        "slot": "0",
                        "type": "t_string_storage"
                    },
                    {
                        "astId": 764,
                        "contract": "contracts/PisangContract.sol:PisangContract",
                        "label": "owner",
                        "offset": 0,
                        "slot": "1",
                        "type": "t_address"
                    },
                    {
                        "astId": 766,
                        "contract": "contracts/PisangContract.sol:PisangContract",
                        "label": "totalDonationsReceived",
                        "offset": 0,
                        "slot": "2",
                        "type": "t_uint256"
                    },
                    {
                        "astId": 768,
                        "contract": "contracts/PisangContract.sol:PisangContract",
                        "label": "donationCount",
                        "offset": 0,
                        "slot": "3",
                        "type": "t_uint256"
                    },
                    {
                        "astId": 770,
                        "contract": "contracts/PisangContract.sol:PisangContract",
                        "label": "isActive",
                        "offset": 0,
                        "slot": "4",
                        "type": "t_bool"
                    },
                    {
                        "astId": 772,
                        "contract": "contracts/PisangContract.sol:PisangContract",
                        "label": "createdAt",
                        "offset": 0,
                        "slot": "5",
                        "type": "t_uint256"
                    }
                ],
                "numberOfBytes": "192"
            },
            "t_struct(Donation)786_storage": {
                "encoding": "inplace",
                "label": "struct PisangContract.Donation",
                "members": [
                    {
                        "astId": 775,
                        "contract": "contracts/PisangContract.sol:PisangContract",
                        "label": "donor",
                        "offset": 0,
                        "slot": "0",
                        "type": "t_address"
                    },
                    {
                        "astId": 777,
                        "contract": "contracts/PisangContract.sol:PisangContract",
                        "label": "contentOwner",
                        "offset": 0,
                        "slot": "1",
                        "type": "t_address"
                    },
                    {
                        "astId": 779,
                        "contract": "contracts/PisangContract.sol:PisangContract",
                        "label": "amount",
                        "offset": 0,
                        "slot": "2",
                        "type": "t_uint256"
                    },
                    {
                        "astId": 781,
                        "contract": "contracts/PisangContract.sol:PisangContract",
                        "label": "timestamp",
                        "offset": 0,
                        "slot": "3",
                        "type": "t_uint256"
                    },
                    {
                        "astId": 783,
                        "contract": "contracts/PisangContract.sol:PisangContract",
                        "label": "contentUrl",
                        "offset": 0,
                        "slot": "4",
                        "type": "t_string_storage"
                    },
                    {
                        "astId": 785,
                        "contract": "contracts/PisangContract.sol:PisangContract",
                        "label": "token",
                        "offset": 0,
                        "slot": "5",
                        "type": "t_address"
                    }
                ],
                "numberOfBytes": "192"
            },
            "t_uint256": {
                "encoding": "inplace",
                "label": "uint256",
                "numberOfBytes": "32"
            }
        }
    }
}